:020000040800F2
:100000008870002081020008DD510008DF510008DF
:10001000E1510008E3510008E5510008000000002C
:10002000000000000000000000000000E95100088E
:10003000E751000800000000EB510008ED510008F6
:10004000FF51000801520008035200080552000841
:100050003F53000841530008D153000803550008DE
:100060006D5500087F55000891550008B5550008EA
:10007000B7550008B9550008BB550008BD55000824
:10008000BF550008C1550008C3550008C5550008F4
:10009000C7550008C9550008CB5500084D56000843
:1000A0009156000893560008C5560008C756000828
:1000B000D35600087357000887580008D75800081F
:1000C000D9580008DB580008DD580008DF58000840
:1000D000E1580008E358000809590008335900089E
:1000E00087590008F7590008F959000800F002F88C
:1000F00000F064F80AA090E8000C82448344AAF15E
:100100000107DA4501D100F059F8AFF2090EBAE85B
:100110000F0013F0010F18BFFB1A43F0010318473B
:10012000645E0100845E01000A444FF0000C10F888
:10013000013B13F0070408BF10F8014B1D1108BF65
:1001400010F8015B641E05D010F8016B641E01F805
:10015000016BF9D113F0080F1EBF10F8014BAD1C55
:100160000C1B09D16D1E58BF01F801CBFAD505E073
:1001700014F8016B01F8016B6D1EF9D59142D6D3CD
:10018000704700000023002400250026103A28BFF5
:1001900078C1FBD8520728BF30C148BF0B607047F9
:1001A000642914F0BF85732914F0B78700207047C5
:1001B0001FB514F008FE1FBD10B510BD14F0B1FF3F
:1001C0001146FFF7F5FF03F0E2FA14F0CFFF03B496
:1001D000FFF7F2FF03BC03F074F900000B49D1F8FC
:1001E00000C04A685CF8043B1068184442F8040BED
:1001F0008C4528BFA1F1DC0C8A4228BFA1F1DC02AA
:10020000C1F800C04A6020F000407047206A00201A
:1002100030BF704720BF704740BF7047BFF36F8F3C
:100220007047BFF34F8F7047BFF35F8F704701DF99
:100230007047EFF31480704780F31488BFF36F8F1B
:100240007047EFF30980704780F309887047EFF338
:100250000880704780F30888704772B6704762B6AE
:10026000704771B6704761B6704780F31188704768
:10027000EFF31280704740BA704700BA7047000031
:100280000348004703480449044A054B70470000EF
:10029000ED000008886A002088700020886C00202B
:1002A000886C002010B5012001F00EFB002001F049
:1002B0000BFB10BD2349086070472249091F0860E5
:1002C00070472049843108607047014600201E4A6B
:1002D00010884FF67F42104008431B4A1080704739
:1002E00001460020184A10884FF6807210400843DB
:1002F000154A10807047154A0244A2F8001C704746
:10030000014612480844B0F8000C70470D489C3074
:100310000068C0B270470C480830008840F0010007
:1003200009490831088070470648A0300068C0B20B
:10033000704705480830008840F002000249083143
:100340000880704704860D422C6C0040006000401D
:1003500000204C490860091D0860091D0860091D3E
:10036000086049484749143108607047817900297D
:1003700046D04449096802689143424A1160111D00
:100380000968026891433F4A121D116001793F4A92
:100390001144D1F800140268114302793B4B1A440E
:1003A000C2F8001437490831096802689143354A98
:1003B00008321160111D096802689143314A0C32FC
:1003C0001160417910290ED1111F0968026811438B
:1003D0002C4A08321160111D096802681143294A2C
:1003E0000C32116018E04179284A1144D1F8001408
:1003F000026811434279254B1A44C2F800140BE0FD
:100400000179224A1144D1F800140268914302791B
:100410001E4B1A44C2F8001470470021016001719C
:100420000C21417100218171704716491031096812
:100430000143144A10321160704701460020114AEE
:10044000143212680A400AB1012000E0002070470F
:100450000C49143108607047014600200022094B06
:100460001B6803EA0102074B14331B680B4013B1EE
:100470000AB1012000E000207047024914310860F1
:100480007047000000040140FFFF0700000001402A
:1004900001460020FE4A106800F038000843106052
:1004A0007047FB49096821F00801F94A11601146BB
:1004B0000968014311607047F549096821F010018E
:1004C000F34A116011460968014311607047F14811
:1004D000EF494860F0484860EE484864EE48486498
:1004E0007047EC48EA494860EB4848607047E94883
:1004F000E7494864E84848647047E548006940F0C7
:100500008000E34908610846006D40F080000865FE
:100510007047DF48006940F08000DD49086170479E
:10052000DB48006D40F08000D94908657047042021
:10053000D749C96C01F0010109B101200EE0D4498D
:10054000C96C01F0040109B1022007E0D049C96C6F
:1005500001F0100109B1032000E00420704700B54C
:1005600002460423FFF7E3FF034603E0FFF7DFFF44
:100570000346521E012B01D1002AF7D102B90523EF
:10058000184600BD0420C249C96801F0010109B143
:1005900001200EE0BE49C96801F0040109B1022042
:1005A00007E0BB49C96801F0100109B1032000E070
:1005B0000420704700B502460423FFF7E3FF03461B
:1005C00003E0FFF7DFFF0346521E012B01D1002A93
:1005D000F7D102B90523184600BD30B504460425FD
:1005E000AE4884421FD24FF43020FFF7E3FF0546A8
:1005F000042D37D1A648006940F00200A4490861E3
:1006000008464461006940F0400008614FF4302022
:10061000FFF7D0FF05469E48006941F6FD7108408E
:100620009B4908611EE04FF43020FFF798FF054614
:10063000042D17D19648006D40F0020094490865DA
:1006400008464465006D40F0400008654FF43020D6
:10065000FFF785FF05468E48006D41F6FD710840A5
:100660008B490865284630BD10B504244FF430206E
:10067000FFF7A0FF0446042C16D18548006940F01E
:100680000400834908610846006940F040000861A1
:100690004FF43020FFF78EFF04467D48006941F695
:1006A000FB7108407A490861042C16D17848006D26
:1006B00040F00400764908650846006D40F04000AF
:1006C00008654FF43020FFF74AFF04467048006D7C
:1006D00041F6FB7108406E490865204610BD10B513
:1006E00004244FF43020FFF765FF0446042C16D194
:1006F0006748006940F004006549086108460069E0
:1007000040F0400008614FF43020FFF753FF0446EB
:100710005F48006941F6FB7108405D490861204669
:1007200010BD10B504244FF43020FFF718FF044625
:10073000042C16D15648006D40F004005449086559
:100740000846006D40F0400008654FF43020FFF788
:1007500006FF04464E48006D41F6FB7108404C49C7
:100760000865204610BD00B502460423FFF70AFFC6
:10077000034603E0FFF706FF0346521E012B01D19B
:10078000002AF7D102B90523184600BD00204049D0
:10079000C96901F0020109B1012000E000207047A1
:1007A00030B5A5250424FFF7F1FF00B100254FF473
:1007B0003020FFF7D8FF0446042C3AD1354834499D
:1007C0008860354888600846006940F0200008616C
:1007D0000846006940F0400008614FF43020FFF700
:1007E000C2FF0446042C1BD12948006941F6DF7181
:1007F0000840274908610846006940F01000086178
:1008000027480580E002FFF7AEFF0446052C10D014
:100810001F48006941F6EF7108401D49086108E072
:10082000052C06D01A48006941F6EF7108401849B6
:100830000861204630BD78B504460D4604260020E8
:1008400000901648801E844236D2F002FFF7B2FEB6
:100850000646042E27D10E48006940F001000C49DD
:1008600008612580F002FFF77EFF0646042E1BD1AB
:10087000A01C0090280C00990880F002FFF773FF7D
:1008800006460348006941F6FE710840004909E048
:100890000020024023016745AB89EFCDFFFF070829
:1008A00000F8FF1F08617DE0F748006941F6FE711E
:1008B0000840F549086175E0F448844246D14FF498
:1008C0000050FFF777FE0646042E12D1EE4800696D
:1008D00040F00100EC4908612580F002FFF76AFE54
:1008E0000646E948006941F6FE710840E64908619C
:1008F00006E0E548006941F6FE710840E2490861FA
:100900004FF40050FFF72BFE0646042E16D1DE48AA
:10091000006D40F00100DC490865A01C0090280C27
:1009200000990880F002FFF71AFE0646D648006DCF
:1009300041F6FE710840D449086533E0D248006DA5
:1009400041F6FE710840D04908652BE04FF4005095
:10095000FFF705FE0646042E24D1CB48006D40F07B
:100960000100C94908652580F002FFF7F8FD064639
:10097000042E10D1A01C0090280C00990880F002D1
:10098000FFF7EDFD0646C048006D41F6FE710840D8
:10099000BD49086506E0BC48006D41F6FE7108409F
:1009A000B9490865304678BD70B504460D46042641
:1009B000F002FFF7D8FE0646B448401C844214D229
:1009C000042E26D1B048006940F00100AE4908610C
:1009D0002580F002FFF7EEFD0646AB48006941F6C0
:1009E000FE710840A849086113E0042E11D1A64801
:1009F000006D40F00100A44908652580F002FFF772
:100A0000AEFD0646A048006D41F6FE7108409E49C5
:100A10000865304670BD70B505460E460424E002F8
:100A2000FFF7A1FE0446042C17D199489649886027
:100A3000984888600846006940F0100008612E80E0
:100A4000E002FFF790FE0446052C06D08E480069B0
:100A500041F6EF7108408C490861204670BD2DE9D0
:100A6000F04304464FF6FF763746B046B1460425BC
:100A7000E443E6B2C4F30727C4F307484FEA146916
:100A8000E802FFF770FE0546042D3FD180487E49FD
:100A90008860804888600846006940F0100008615E
:100AA000FF2E05D07C480680E802FFF75CFE054675
:100AB000042D08D1FF2F06D07748801C0780E8025C
:100AC000FFF751FE0546042D0AD1B8F1FF0F07D0FC
:100AD0007148001DA0F80080E802FFF744FE0546BB
:100AE000042D0AD1B9F1FF0F07D06B48801DA0F883
:100AF0000090E802FFF737FE0546052D06D0624854
:100B0000006941F6EF7108405F4908612846BDE879
:100B1000F08330B5054604244FF43020FFF723FE60
:100B20000446042C43D15A48574988605948886084
:100B30000846006940F0200008610846006940F05E
:100B4000400008614FF43020FFF70DFE0446042CEE
:100B500024D14D48006941F6DF7108404A490861D7
:100B60000846006940F01000086125B100204A499C
:100B70000839088003E0A5204749083908804FF468
:100B80003020FFF7F0FD0446052C10D03E480069E8
:100B900041F6EF7108403C49086108E0052C06D099
:100BA0003948006941F6DF7108403749086120463D
:100BB00030BDF0B505460E46174604243448324988
:100BC000886034488860E002FFF7CDFD0446042CBD
:100BD00019D12D48006940F010002B49086147F0F9
:100BE000F800304328432C49891F0880E002FFF7B2
:100BF000BAFD0446052C06D02348006941F6EF7182
:100C00000840214908612046F0BD30B5054604245E
:100C10001F481D4988601F488860E002FFF7A3FD58
:100C20000446042C26D11848006940F010001649EB
:100C3000086145B91848801F008840F0080016492F
:100C4000891F088008E01448801F00884FF6F7715C
:100C500008401149891F08804FF40050FFF783FDB9
:100C60000446052C06D00848006941F6EF7108409B
:100C700005490861204630BD0348C06980087047B7
:100C80000148006A7047000000200240FEFF07088C
:100C900023016745AB89EFCD08F8FF1F00203549D8
:100CA000096801F0200109B1012000E0002070472F
:100CB00000F0004282B139B12E4A126D20F000439B
:100CC0001A432C4B1A6513E02A4A126D20F0004398
:100CD0009A43284B1A650BE029B1264A1269024350
:100CE000244B1A6104E0234A12698243214B1A61A2
:100CF000704701460020012908D11E4AD26902F03E
:100D000001020AB1012013E0002011E001F00042CD
:100D10003AB1184AD26C0A400AB1012008E000201A
:100D200006E0144AD2680A400AB1012000E000201F
:100D3000704700F0004111B10E49C86401E00D494F
:100D4000C860704704200B49C96801F0010109B16E
:100D500001200EE00749C96801F0040109B1022031
:100D600007E00449C96801F0100109B1032000E05F
:100D7000042070470020024010B50446C549601A9F
:100D80008C422FD009DCC448204480B1B0F5806F7C
:100D900016D0B0F5006F4AD11BE0B0F5806F2AD0B5
:100DA000B0F5006F30D0B0F5406F40D135E0012193
:100DB000042000F06FFD0021042000F06BFD37E0FF
:100DC0000121082000F066FD0021082000F062FDEE
:100DD0002EE00121102000F05DFD0021102000F028
:100DE00059FD25E00121202000F054FD00212020A4
:100DF00000F050FD1CE00121402000F04BFD0021DF
:100E0000402000F047FD13E00121802000F042FD6A
:100E10000021802000F03EFD0AE00121080200F0E0
:100E200039FD00214FF4807000F034FD00E000BF78
:100E300000BF10BD10B50121084600F02BFD0021B8
:100E4000012000F027FD10BD2DE9F04102460025EC
:100E50000026002000230024002791F803C00CF096
:100E60000F0591F803C00CF0100CBCF1000F03D07B
:100E700091F802C04CEA050591F800C0BCF1000FE2
:100E800030D0146800202AE04FF0010C0CFA00F377
:100E9000B1F800C00CEA03069E421FD183004FF058
:100EA0000F0C0CFA03F7BC4305FA03FC4CEA0404EC
:100EB00091F803C0BCF1280F05D14FF0010C0CFADA
:100EC00000FCC2F814C091F803C0BCF1480F05D172
:100ED0004FF0010C0CFA00FCC2F810C0401C0828AE
:100EE000D2D31460B1F800C0BCF1FF0F34DD5468F8
:100EF00000202EE000F1080C4FF0010808FA0CF376
:100F0000B1F800C00CEA03069E4221D183004FF0E5
:100F10000F0C0CFA03F7BC4305FA03FC4CEA04047B
:100F200091F803C0BCF1280F05D100F1080C08FAB4
:100F30000CF8C2F8148091F803C0BCF1480F07D137
:100F400000F1080C4FF0010808FA0CF8C2F8108004
:100F5000401C0828CED35460BDE8F0814FF6FF71E5
:100F60000180022181700421C17070470246002077
:100F700093680B400BB1012000E000207047014650
:100F8000886880B2704702460020D3680B400BB1DE
:100F9000012000E0002070470146C86880B2704719
:100FA00001617047416170470AB1016100E0416130
:100FB0007047C16070474FF480320A43826181619B
:100FC000826182698269704702460020334B18684B
:100FD0004FF68073184040EA021008432F4B186008
:100FE00070472F49C8617047F0B50A4600230024B6
:100FF00000210025294E7168C0F3034583B200F437
:101000004016B6F5401F08D121F07061234E766876
:1010100026F07066214F7E6012E000F48016B6F56F
:10102000801F06D1032606FA05F4A14341F0706142
:1010300006E0460D360103FA06F6B14341F0706151
:1010400022B1460D360103FA06F63143134E7160A4
:10105000F0BD30B500228B071C0F0F2303FA04F2FA
:101060000E4B08338C1053F8243093430B4C083448
:101070008D1044F8253023468C1053F824308C070B
:10108000240F00FA04F42343044C08348D1044F870
:10109000253030BD0014014000F8FEBF00000140C3
:1010A000000020420E49086070470D4948607047B3
:1010B0000B49886070474AF6AA20094908607047C2
:1010C0004CF6CC4006490860704701460020044AAF
:1010D000D2680A400AB1012000E0002070470000F9
:1010E000003000400020411EED4A11600A09EC4921
:1010F0008039C1F88420411E4FF0E022C2F88012EE
:101100000A09E8490A6000BF04E00022E64941F804
:101110002020401C0F28F8D3704700204FF020619A
:10112000E24A11600021121D1160E149121D116097
:101130000021121D1160121D116000BF05E0002288
:10114000DA49143141F82020401C0328F7D300214C
:10115000D64A20321160491E121D1160121D116005
:10116000121D11607047D2490143D04A0832116004
:101170007047F0B500210022002300250F24C67817
:10118000002E35D0C94E0836366806F4E066C6F53E
:10119000E066310AC1F10405CC40467806FA05F153
:1011A00086782640314309010678B607F60EB1402D
:1011B000BD4E0778BF1056F827200678B607F70E01
:1011C000FF2606FA07F39A4319400A43B64E0778FA
:1011D000BF1046F82720067806F01F070126BE40FC
:1011E00007787F11BF0007F1E027C7F800610BE027
:1011F000067806F01F070126BE40A94F90F800C0F0
:101200004FEA6C1C47F82C60F0BD00210170417062
:101210008170C170704710B5FFF71FF810BD10B591
:10122000FFF71DF810BD10B5FFF71BF810BD10B586
:10123000FFF719F810BD10B504462001FFF715F8A7
:1012400010BD10B5FFF714F810BD98480068C0F342
:101250000930704710B501460020002201F01F043C
:10126000012303FA04F28E4B80334C1153F82430DF
:101270001340934201D1012000E0002010BD8D49B0
:101280000860704700F01F0201219140854A121F3B
:10129000431142F82310704784480068C0F30900E6
:1012A000704710B501460020002201F01F04012301
:1012B00003FA04F27B4B7C334C1153F82430134077
:1012C000934201D1012000E0002010BD7748001FAB
:1012D00000687047784A0A400243744B1B1D1A602D
:1012E00070477348001D71490831086070477048A5
:1012F000401C6E4908310860704739B16B4A0C32A6
:1013000012680243694B0C331A6006E0674A0C32DC
:1013100012688243654B0C331A60704710B5002287
:1013200000F01F04012303FA04F239B15F4B2033AC
:101330001B6813435D4C2034236006E05B4B203375
:101340001B689343594C2034236010BDF0B503460D
:101350000C4615460020FF2200260021534F083777
:101360003F6807F4E067C7F5E067390AC1F1040098
:10137000CA4004FA00F105EA02073943090103F003
:10138000C0008009C3F30122D700B9404FEAC20C64
:10139000FF2707FA0CF6454F143757F82070B7436C
:1013A000DFF808C10CF1140C4CF82070674657F8B0
:1013B00020700F434CF82070F0BD10B5024600209D
:1013C00000230021910A01F00F01012404FA01F128
:1013D000364C2034246804EA01038B4201D10120F9
:1013E00000E0002010BD002100F01F012F4A12680C
:1013F00001238B401A432D4B1A60704710B5002112
:1014000000F01F01294A12684B1E01249C40224310
:10141000264B1A6010BD10B50246002000230021A3
:10142000C2F38331012404FA01F1204C20342468F2
:1014300004EA01038B4201D1012000E0002010BD2D
:1014400030B50146002000220023C1F38142C1F3E0
:1014500001531AB9154C2834206811E0012A0CD127
:10146000124C24342468DD0024FA05F0022B02D04B
:1014700000F00F0004E0C0B202E00C4C2C342068F5
:1014800030BD014600200022C1F380521AB9074B3B
:101490003033186802E0054B343318687047000099
:1014A00080E100E084E200E000E400E004ED00E020
:1014B0000000FA0500EF00E080FFFF1F10B50121DA
:1014C000080700F0F4F900214FF0805000F0EFF928
:1014D00010BD2849086270472649086170470146D7
:1014E0000020254A106820F0E00008431060704793
:1014F0002049A0310860704770B505460E460024AB
:101500001D48046824F003042C4304601B48006851
:1015100040F0040019490860012E02D1FEF778FE60
:1015200001E0FEF777FE70BD10B51348006840F08B
:101530000400114908600846006840F00200086095
:101540000E48006840F004000C490860FEF760FE99
:1015500010BD01460020084A52680A400AB1012025
:1015600000E0002070470449096841EA8001024A0E
:101570001160704700000E420070004010ED00E066
:10158000E048006840F00100DE4908600846406815
:10159000DD490840DB49486008460068DB490840EF
:1015A000D84908600846006820F480200860084692
:1015B000406820F4FE004860002088607047D149F0
:1015C000096821F48031CF4A11601146096821F47D
:1015D00080211160B0F5803F03D0B0F5802F0ED18F
:1015E00006E0C849096841F48031C64A116007E045
:1015F000C449096841F4A021C24A116000E000BF5B
:1016000000BF704710B501460022002300204A1198
:10161000012A02D1BB4C236806E0022A02D1B94C50
:10162000236A01E0B74C636A01F01F020124944071
:101630001C400CB1012000E0002010BD10B50024BA
:1016400000BF3120FFF7DEFFB1490870B1480068E4
:10165000401CB0490860AE48007828B908460068C8
:1016600040F2FF118842ECD13120FFF7CBFF08B1E7
:10167000012400E00024204610BD01460020A14ABC
:10168000106820F0F80040EAC10010607047A249DD
:1016900008607047024600209A4B586820F47C107E
:1016A00042EA01031843974B586070479A4908660D
:1016B000704701460020934A506820F00300084319
:1016C000506070478F48406800F00C00704701463A
:1016D00000208C4A506820F0F000084350607047AA
:1016E00001460020874A506820F4E06008435060BB
:1016F000704701460020834A506820F4605040EA59
:10170000C1005060704729B17E4A527A02437D4B36
:101710005A7204E07B4A527A82437A4B5A7270477B
:101720007D49D8310860704701460020754A5068ED
:1017300020F440400843506070470021714A203235
:101740001170704A82F82010012802D004280AD1B2
:1017500004E001216B4A2032117005E00521694A3D
:101760002032117000E000BF00BF70476B49086075
:1017700070476449096A0143624A116270476749C8
:1017800044390860704730B500210022002400234E
:101790005C4D6D6805F00C0121B1042905D00829C4
:1017A00023D105E05E4D056022E05D4D05601FE040
:1017B000544D6D6805F47012022505EB9242514DAF
:1017C0006D6805F480341CB9564D554305600BE037
:1017D0004C4D6D6805F400351DB1524D5543056003
:1017E00002E04F4D5543056002E04D4D056000BFDE
:1017F00000BF444D6D6805F0F00109094A4D6B5C6E
:101800000568DD4045603F4D6D6805F4E061090AFB
:10181000454D6B5C4568DD4085603A4D6D6805F46B
:101820006051C90A404D6B5C4568DD40C560354D6F
:101830006D6805F44041890B3C4D6B5CC568B5FB98
:10184000F3F5056130BD29B12E4A526902432D4B93
:101850005A6104E02B4A526982432A4B5A6170470D
:1018600029B1284A92690243264B9A6104E0254A2D
:1018700092698243234B9A61704729B1214AD26908
:101880000243204BDA6104E01E4AD26982431D4BB9
:10189000DA61704729B11B4AD2680243194BDA60FA
:1018A00004E0184AD2688243164BDA60704729B1C7
:1018B000144A12690243134B1A6104E0114A126977
:1018C0008243104B1A6170471449403908607047D1
:1018D0001149C86470470B49C87170470948406A8C
:1018E00040F0807007494862704701460020054A71
:1018F00092680A400AB1012000E0002070470149C7
:1019000088727047001002400000FFF8FFFFF6FEEB
:1019100000000020040000200000424280044242F7
:1019200000127A0000093D00705C0108805C01082B
:1019300029B1504A128802434E4B1A8004E04D4AA6
:10194000128882434B4B1A8070474A48001D00881A
:1019500040F010004749091D088070474548001DA8
:1019600000884FF6EF7108404249091D0880704712
:10197000002140481C300188001F008841EA0040D7
:10198000704700B50246FFF7E0FF100C39491831E7
:101990000880091D0A80FFF7E1FF00BD00B502467F
:1019A000FFF7D3FFC2F30340324908310880091D15
:1019B0000A80FFF7D3FF00BD00B50246FFF7C5FF61
:1019C000100C2C4920310880091D0A80FFF7C6FF42
:1019D00000BD00202749103109880907080B254957
:1019E000143109880843704700BF2248001D008851
:1019F00000F020000028F8D070471E48001D008825
:101A00004FF6F77108401B49091D088000BF1948AF
:101A1000001D008800F008000028F8D0704701463B
:101A20000020144A121D12880A400AB1012000E069
:101A3000002070470F49091D098881430D4A121D76
:101A400011807047014600200A4A121D12880A4080
:101A5000D0B2084A12880A4012B108B1012000E051
:101A6000002070470349091D09888143014A121D5E
:101A70001180704700280040042808D14FF0E02171
:101A8000096941F004014FF0E022116107E04FF0D5
:101A9000E021096921F004014FF0E0221161704753
:101AA0004FF0E02148617047012808D14FF0E02154
:101AB000096941F001014FF0E02211610EE0811C43
:101AC00041B94FF0E021096921F001014FF0E02216
:101AD000116103E000214FF0E0229161704740B1B5
:101AE0004FF0E021096941F002014FF0E02211615D
:101AF00007E04FF0E021096921F002014FF0E022F8
:101B0000116170474FF0E0208069704710B50146C1
:101B1000002200230020CB10022B03D14FF0E02441
:101B2000226902E04FF0E024E26901248C40144075
:101B30000CB1012000E0002010BD000010B50446EB
:101B4000F749601A8C4245D00CDCB4F1804F1DD0AF
:101B5000F448204418B3B0F5806F29D0B0F5006F79
:101B600054D12EE0B0F5806F3DD0B0F58E3F03D05C
:101B7000B0F5923F4AD13FE00121C802FFF78AFE4B
:101B800000214FF40060FFF785FE40E00121084688
:101B9000FFF78DFE00210120FFF789FE37E00121CC
:101BA0000220FFF784FE00210220FFF780FE2EE0D6
:101BB00001210420FFF77BFE00210420FFF777FEC0
:101BC00025E001210820FFF772FE00210820FFF721
:101BD0006EFE1CE001211020FFF769FE002110209D
:101BE000FFF765FE13E001212020FFF760FE0021D2
:101BF0002020FFF75CFE0AE001214803FFF74AFEC0
:101C000000214FF40050FFF745FE00E000BF00BF89
:101C100010BD028802F08F020280CA884B881A43E6
:101C200003881A4302808A8882850A8802850122F5
:101C30008282BD4A904202D0BC4A904201D10A7AC7
:101C40000286704770B5002400220023058C4FF6F1
:101C5000FE7635400584028C8388048B4FF68F75A1
:101C60002C400D882C43751E2A400D892A434D882F
:101C70002A43CD888586AC4DA84202D0AB4DA84200
:101C800013D14FF6F7752A404D892A434FF6FB755D
:101C90002A408D882A4347F6FF652B4047F6FF55BB
:101CA0002B408D892B43CD892B4383800483028471
:101CB00070BD70B5002400220023058C4FF6EF762E
:101CC00035400584028C8388048B48F6FF752C40D0
:101CD0000D884FF6FF7606EA05252C434FF6DF7593
:101CE0002A400D8906EA05152A434D8806EA05159E
:101CF0002A43CD8805878C4DA84202D08B4DA8423F
:101D00001DD14FF67F752A404D894FF6FF7606EAC2
:101D100005152A434FF6BF752A408D8806EA05153A
:101D20002A4347F6FF352B4047F2FF752B408D893C
:101D300006EA85052B43CD8906EA85052B4383807A
:101D40000483028470BD70B5002400220023058C3A
:101D50004FF6FF6635400584028C8388848B4FF6EE
:101D60008F752C400D882C434FF6FF552A400D8966
:101D70004FF6FF7606EA05252A434D8806EA052533
:101D80002A43CD888587684DA84202D0674DA84276
:101D90001DD14FF2FF752A404D894FF6FF7606EAB6
:101DA00005252A434FF6FF352A408D8806EA05258A
:101DB0002A4346F6FF752B4045F6FF752B408D896B
:101DC00006EA05152B43CD8906EA05152B438380CA
:101DD0008483028470BD70B5002400220023058C2A
:101DE0004EF6FF7635400584028C8388848B48F656
:101DF000FF752C400D884FF6FF7606EA05252C432B
:101E00004DF6FF752A400D8906EA05352A434D88AF
:101E100006EA05352A43CD88A0F84050424DA84235
:101E200002D0424DA84207D1C3F30D038D894FF66E
:101E3000FF7606EA85152B4383808483028470BD78
:101E4000828B4FF2FF331A408283828B4FF6FF73EF
:101E500003EA01231A4382837047F0B50C46154606
:101E6000002100220026078C4EF6FF7C07EA0C07B3
:101E70000784818B028C4FF6FF7707EA043640F621
:101E8000FF4739404FF6FF7707EA05274FF6FF7CFB
:101E90000CEA033C47EA0C0739434DF6FF773A401A
:101EA00046F480573A4381830284F0BD828B4FF61B
:101EB000F3731A408283828B0A4382837047F0B5A2
:101EC0000C461546002100220026078C4FF6FF6CB9
:101ED00007EA0C070784818B028C4FF6FF7707EA2D
:101EE00004264FF60C7739404FF6FF7707EA0317C1
:101EF0002F4339434FF6FF573A4046F480773A4331
:101F000081830284F0BD028B4FF2FF331A400283BB
:101F1000028B4FF6FF7303EA01231A4302837047D3
:101F20000010004000FCFFBF002C014000340140C5
:101F3000F0B50C461546002100220026078C4FF60E
:101F4000EF7C07EA0C070784018B028C4FF6FF77C2
:101F500007EA041640F6FF4739404FF6FF7707EAD5
:101F6000033739434FF6FF7707EA052739434FF622
:101F7000DF773A4046F010073A4301830284F0BD10
:101F8000028B4FF6F3731A400283028B0A430283DB
:101F90007047F0B50C46154600210022068C4FF61E
:101FA000FE773E400684018B028C4FF60C76314062
:101FB0007E1C06EA03162E4331437E1E324044F057
:101FC0000106324301830284F0BD70B505460C461C
:101FD000208850B92389A28861882846FFF7D9FF55
:101FE000E1882846FFF7CCFF25E0208804280AD1A5
:101FF0002389A28861882846FFF79AFFE18828464E
:10200000FFF781FF17E0208808280AD12389A288DA
:1020100061882846FFF753FFE1882846FFF746FF0F
:1020200009E02389A28861882846FFF716FFE18826
:102030002846FFF705FF70BD2DE9F04105460C4627
:1020400000260127608808B9022600E00026A08843
:10205000012801D1022700E001272088A0B92389A7
:10206000A28861882846FFF794FFE1882846FFF799
:1020700087FF23893A4631462846FFF759FFE18812
:102080002846FFF740FF13E02389A288618828468D
:10209000FFF74EFFE1882846FFF735FF23893A46D0
:1020A00031462846FFF775FFE1882846FFF768FFAD
:1020B000BDE8F0810A884B881A438B881A43CB8885
:1020C0001A430B891A434B891A438B891A43A0F888
:1020D000442070474FF6FF71818000210180C1804C
:1020E0004180017270470021018041808180C18060
:1020F000018141818181C18170470021018041803E
:10210000012181800021C18001817047002101806F
:1021100041808180C180018141818181704721B1ED
:10212000028842F00102028004E0028840F2FE339D
:102130001A400280704731B1B0F8442042F40042A6
:10214000A0F8442005E0B0F84420C2F30E02A0F845
:10215000442070471AB183890B43838102E083894D
:102160008B43838170478182704741EA0203A0F864
:10217000483070471AB183890B43838102E0838919
:102180008B438381704701894FF6F87211400181BA
:1021900070470A46002101894FF68F731940114399
:1021A0000181704730B504460D4629462046FFF7A9
:1021B000F0FF208940F00700208130BD2DE9F0417B
:1021C00004460D4616461F46602D06D13B460122A9
:1021D00031462046FFF7ACFE05E03B460122314682
:1021E0002046FFF7D6FE29462046FFF7D2FF20897A
:1021F00040F007002081BDE8F08170B50C46002159
:102200000189C9B244EA02054FF6FF7606EA0326C1
:1022100035432943018170BD2DE9F04105460E4645
:1022200017469846002443463A4631462846FFF76B
:10223000E4FF2C894FF6F870044044F007044FF691
:102240008F70044044F070042C81BDE8F081F0B53B
:1022500004460D4616461F463B4632462946204652
:10226000FFF7CBFF208940F480402081F0BD01853D
:10227000828270470A460021018840F28F3319405C
:10228000114301807047F0B50C4615461E460021EB
:10229000002200230189028B038C4FF6F877394026
:1022A00021434FF6FC473A4040F201173A434FF6BC
:1022B000DD773B404FF6FF7707EA06172F433B4396
:1022C000018102830384F0BD0A460021018B4FF691
:1022D0008F7319401143018370470A460021018B17
:1022E00048F6FF7319404FF6FF7303EA02231943C0
:1022F000018370470A460021818B4FF68F73194086
:102300001143818370470A460021818B48F6FF7391
:1023100019404FF6FF7303EA022319438183704784
:1023200021B1028842F08002028004E0028840F27B
:102330007F331A400280704721B1828842F0040244
:10234000828004E082884FF6FB731A4082807047D7
:1023500021B1828842F00802828004E082884FF630
:10236000F7731A408280704721B1828842F00102DF
:10237000828004E082884FF6FE731A4082807047A4
:102380000A460021018B4FF6F77319401143018370
:1023900070470A460021018B4FF2FF7319404FF638
:1023A000FF7303EA02231943018370470A460021A1
:1023B000818B4FF6F77319401143818370470A46AA
:1023C0000021818B4FF2FF7319404FF6FF7303EA30
:1023D00002231943818370470A460021018B4FF67F
:1023E000FB7319401143018370470A460021018B9A
:1023F0004FF6FF3319404FF6FF7303EA02231943E8
:10240000018370470A460021818B4FF6FB73194008
:102410001143818370470A460021818B4FF6FF33B9
:1024200019404FF6FF7303EA022319438183704773
:102430000A460021018B4FF67F7319401143018337
:1024400070470A460021018BC1F30E014FF6FF735E
:1024500003EA02231943018370470A460021818B56
:102460004FF67F7319401143818370470A4600215C
:10247000818BC1F30E014FF6FF7303EA0223194368
:10248000818370470A460021018C4FF6FD73194085
:102490001143018470470A460021018C4FF6F773FF
:1024A00019401143018470470A460021018C4FF600
:1024B000DF7319404FF6FF7303EA021319430184D7
:1024C00070470A460021018C4FF67F7319404FF682
:1024D000FF7303EA02131943018470470A4600217F
:1024E000018C4FF6FF5319404FF6FF7303EA0223A6
:1024F0001943018470470A460021018C4FF2FF7393
:1025000019404FF6FF7303EA022319430184704711
:102510000A460021018C4DF6FF7319404FF6FF73F8
:1025200003EA023319430184704710B5038C012478
:102530008C40A3430384038C02FA01F4A4B2234326
:10254000038410BD10B5038C04248C40A343038482
:10255000038C02FA01F4A4B22343038410BD30B506
:10256000038C01248C40A343038409B1082912D1B0
:1025700000F1180303EB61031B684FF68F742340CF
:1025800000F1180404EB6104236000F1180303EB6D
:1025900061031A6018E00B1FC3F34E0400F1180327
:1025A0001B5948F6FF7423400C1FC4F34E0500F17D
:1025B000180463514FF6FF7303EA02240B1FC3F3A1
:1025C0004E0500F118035C5130BD21B1028842F084
:1025D0000202028004E0028840F2FD331A400280C9
:1025E000704721B1028842F00402028004E00288B0
:1025F00040F2FB331A400280704721B1828842F0DA
:102600008002828004E082884FF67F731A408280C5
:102610007047028840F2F7331A40028002880A436A
:102620000280704782884FF68F731A4082808288BA
:102630000A438280704702894FF6F8731A4002817C
:1026400002890A430281704702894FF67F731A405C
:10265000028102890A430281704781847047818523
:102660007047818670470187704781877047A0F85F
:10267000401070470288D2B2028002880A4302806A
:1026800070470146888E70470146088F70470146A3
:10269000888F70470146B1F8400070470146888C2A
:1026A00070470146088D704702460020138A0B4090
:1026B0000BB1012000E000207047CA43028270473E
:1026C00030B50246002000230024158A05EA0103E4
:1026D000958905EA010413B10CB1012000E0002046
:1026E00030BDCA430282704710B50446D749601A0C
:1026F0008C422BD006DCD648204498B1B0F5806FD0
:1027000038D119E0B0F5806F2AD0B0F56C4F31D1D7
:1027100001218803FFF7BEF800214FF48040FFF746
:10272000B9F828E001214804FFF7C1F800214FF46F
:102730000030FFF7BCF81EE001218804FFF7B7F86E
:1027400000214FF48020FFF7B2F814E00121C80403
:10275000FFF7ADF800214FF40020FFF7A8F80AE0DA
:1027600001210805FFF7A3F800214FF48010FFF7BF
:102770009EF800E000BF00BF10BD2DE9F04786B015
:1027800005460E460024A24600BF00BF00272F4684
:102790002C8A4CF6FF700440F08804432C82AC89EC
:1027A0004EF6F3100440B08831890843718908431C
:1027B0000443AC81AC8A4FF6FF400440B089044327
:1027C000AC8201A8FEF7DFFFA248874202D1DDF804
:1027D00010A001E0DDF80CA00AEBCA0000EB0A1023
:1027E00031688900B0FBF1F86420B8FBF0F0040117
:1027F0002009642101FB1089322000EB0910B0FB95
:10280000F1F000F00F0004432C8106B0BDE8F08722
:102810004FF41651016000218180C18001810C219B
:10282000418100218181704710B502460020108A45
:102830004FF2FF0318400B884C8823438C882343B6
:10284000CC8823431843108210BD002101804180B1
:102850008180C180704721B1828942F40052828117
:1028600004E082894DF6FF731A4082817047F0B50B
:10287000034600240026002500201846C1F3421418
:1028800001F01F06012707FA06F5012C01D10C30D3
:1028900004E0022C01D1103000E014301AB10768B6
:1028A0002F43076002E00768AF430760F0BD1AB12D
:1028B000838A0B43838202E0838A8B43838270473F
:1028C000028A4FF6F0731A400282028A0A43028299
:1028D000704782894FF2FF731A40828182890A43CE
:1028E0008281704721B1828942F00202828104E034
:1028F00082894FF6FD731A4082817047028A4FF633
:10290000DF731A400282028A0A430282704721B1B1
:10291000028A42F48042028204E0028A4BF6FF738C
:102920001A4002827047C1F3080282807047014654
:102930008888C0F308007047818941F001018181D6
:102940007047028BD2B20283028B42EA01220283D9
:102950007047028B02F47F420283028B0A43028398
:10296000704721B1828A42F02002828204E0828A8A
:102970004FF6DF731A408282704721B1828A42F09B
:102980001002828204E0828A4FF6EF731A4082823C
:10299000704721B1828A42F00802828204E0828A72
:1029A0004FF6F7731A4082827047828A4FF6FB73A4
:1029B0001A408282828A0A438282704721B1828AC7
:1029C00042F00202828204E0828A4FF6FD731A40CE
:1029D000828270470246002013880B400BB1012011
:1029E00000E000207047CA430280704770B502467D
:1029F0000B460024002100250020C3F3421503F0FC
:102A00001F01012606FA01F1012D02D196893140FC
:102A100006E0022D02D1168A314001E0968A31404B
:102A20001C12012606FA04F41688344011B10CB1C8
:102A3000012000E0002070BD10B5002200230A1222
:102A400001249440A3B2DC43048010BD004C00403C
:102A500000BCFFBF0038014010B54FF48051FE4864
:102A6000FEF7A0FA10BD10B54FF48051FA48FEF7FA
:102A700097FA10BD08B54FF40040ADF800000320F0
:102A80008DF8020010208DF803006946F248FEF729
:102A9000DBF908BD08B54FF40040ADF80000482050
:102AA0008DF803006946EC48FEF7CEF908BD70B515
:102AB0000446FFF7DFFF00251FE004F0800028B187
:102AC0004FF40041E448FEF76BFA04E04FF4004194
:102AD000E148FEF767FA00BF4FF40051DE48FEF709
:102AE0005FFA00BF072D04DA4FF40051DA48FEF711
:102AF00059FA6006040E681CC5B2082DDDDBFFF72D
:102B0000C9FF4FF40051D448FEF74CFA70BD10B520
:102B1000FFF7A2FF7020FFF7CAFFFFF7A4FF10BD69
:102B200010B5FFF799FF6020FFF7C1FFFFF79BFF8C
:102B300010BD10B5FFF790FFE020FFF7B8FFFFF7DB
:102B400092FF10BD70B5FFF7A5FF002519E04FF407
:102B50000041C148FEF70AFA10B96006040E03E00E
:102B6000012000EB4400C4B24FF40051BA48FEF714
:102B700017FA00BF4FF40051B748FEF713FA681C6C
:102B8000C5B2082DE3DB204670BD2DE9F0470446B1
:102B9000FFF762FF2020FFF78AFF002504E0605D59
:102BA000FFF785FF681CC5B2042DF8DBFFF75BFF5C
:102BB000FFF752FFA020FFF77AFFFFF7C3FF07469A
:102BC000FFF7C0FF8046FFF7BDFF8146FFF7BAFF62
:102BD00006462078B84201D000BFFEE76078404545
:102BE00001D000BFFEE7A078484501D000BFFEE756
:102BF000E078B04201D000BFFEE700BFFFF733FF2F
:102C0000BDE8F08770B504460E46FFF733FFFFF7C7
:102C100023FF00BF00251CE004F0800028B14FF422
:102C200000418D48FEF7BCF904E04FF400418A48AA
:102C3000FEF7B8F94FF400518748FEF7B1F900BF2D
:102C40004FF400518448FEF7ADF96006040E681C8D
:102C5000C5B2082DE0DB00BF002520E006F40040EF
:102C600028B14FF400417C48FEF79AF904E04FF494
:102C700000417948FEF796F94FF400517648FEF787
:102C80008FF900BF0F2D04DA4FF400517248FEF7A0
:102C900089F94FF6FF7000EA4606681CC5B2102D90
:102CA000DCDBFFF7F7FE4FF400516B48FEF77AF9D3
:102CB000FFF7D9FE70BD10B504466848007878B1BA
:102CC0006000674A32F810100120FFF79BFF600098
:102CD000401C634A32F810100220FFF793FF0EE009
:102CE0006000604A32F810100120FFF78BFF60008F
:102CF000401C5C4A32F810100220FFF783FF10BD21
:102D000070B50546FFF7B6FEFFF7A6FE45F0800555
:102D100000241FE005F0800028B14FF400414E4828
:102D2000FEF73EF904E04FF400414B48FEF73AF954
:102D300000BF4FF400514848FEF732F900BF072C9E
:102D400004DA4FF400514448FEF72CF96806050EEA
:102D5000601CC4B2082CDDDBFFF79CFE4FF4005171
:102D60003D48FEF71FF900BF00241BE04FF400416F
:102D70003948FEF7FBF820B94FF6FF7000EA460627
:102D800003E0012000EB460086B24FF400513248C8
:102D9000FEF706F900BF4FF400512F48FEF702F985
:102DA000601CC4B2102CE1DBFFF75DFE304670BD45
:102DB00070B504460E4625462B48808A40EA053009
:102DC00085B229460520FFF71DFF31460620FFF793
:102DD00019FF70BD70B5044625462348808A40EA35
:102DE000053085B229460520FFF70CFF0620FFF7C6
:102DF00087FF0546284670BD00BFFEE770B51A483C
:102E0000808F41F60202104381B20F20FFF7FAFED5
:102E100000BF0F20FFF774FF044641F60200044094
:102E2000002CF6D10E20FFF76BFF0446C4F300150B
:102E30000DB1FFF7E1FF0A4881880120FFF7E2FEAC
:102E40000748C1880220FFF7DDFE0748808F80B267
:102E500040F004010F2009E0000C01402600002092
:102E60003C5D0108485D0108C45C0108FFF7CAFE2B
:102E700000BF0F20FFF744FF044604F00404002CB9
:102E8000F7D10E20FFF73CFF0446C4F300260EB135
:102E9000FFF7B2FF70BD10B5F948008D80B240F465
:102EA00001410A20FFF7AEFEF548808F80B240F066
:102EB00001010F20FFF7A6FE10BD10B5002408E0A9
:102EC000EF4830F8240081B22046FFF79BFE601CDB
:102ED000C4B2102CF4DB002408E0EA4830F82400E7
:102EE00081B22046FFF764FF601CC4B20D2CF4DBF6
:102EF00010BD08B5E4A0006800900020E349087008
:102F0000FFF7B1FD4FF40051E148FEF74BF8002008
:102F1000E0490870E0490870FFF7F9FDD848808E55
:102F200081B20D20FFF76EFE782001F0D9FFD54861
:102F3000808C81B20920FFF73BFFFFF7BEFFFFF750
:102F4000AAFF642001F0CCFF6846FFF71EFEFFF7E2
:102F500055FFD248007838B9C948008C80B240F09B
:102F600002010820FFF74EFE0020CD490870CD4930
:102F7000CB4A1278885CFFF79EFE0120C349087097
:102F800008BD10B50446C548007830B1BC48008C77
:102F900081B20820FFF736FE07E0B948008C80B206
:102FA00040F002010820FFF72DFE10BD10B5FFF71D
:102FB000B7FDFFF751FD4020FFF779FD002405E044
:102FC000B949085DFFF773FD601CC4B2402CF7DB04
:102FD000FFF749FD10BD70B505460E46FFF7A0FD91
:102FE000FFF73AFD4020FFF762FD002404E0285D72
:102FF000FFF75DFD601CC4B2B442F8DBFFF733FDA0
:1030000070BD10B544F278010F20FFF7FBFD10BD35
:1030100010B544F268010F20FFF7F4FD10BD70B544
:1030200006460C46A1480088401CA04908809A48E2
:103030000078A04206D0601E81B20B20FFF7E2FDAF
:1030400095480470FFF775FDFFF706FDC020FFF7F8
:103050002EFD002504E0FFF775FD7055681CC5B214
:10306000A542F8DBFFF7FFFC70BD70B50446FFF723
:1030700001FDFFF7F1FC00251EE004F0800028B1FF
:103080004FF400418248FDF78BFF04E04FF400410C
:103090007F48FDF787FF00BF4FF400517C48FDF7E4
:1030A0007FFF072D04DA4FF400517948FDF77AFFCE
:1030B0006006040E681CC5B2082DDEDBFFF7EAFCD3
:1030C0004FF400517248FDF76DFFFFF7CCFC70BD67
:1030D00070B504464FF4FF757548047007207549B4
:1030E00008700220FDF7A1F901E0681E85B2714861
:1030F000007808B1002DF8D170BD70B505460024E8
:103100002846FFF7E5FF07E0B4F57A7F00D307E034
:10311000012001F0E5FE641C674800780028F3D028
:1031200000BF65480078012803D10020624908707B
:1031300070BD002060490870FF20F9E710B5062037
:103140005C4908701020FFF790FF0A2001F0C8FECC
:1031500003205049087010BD10B5FF2406205549C2
:1031600008700220FDF761F901E0601EC4B2514809
:10317000007808B1002CF8D110BD70B504461420B9
:10318000FFF773FF1820FFF770FFC82502E001204A
:1031900001F0A6FE01214948FDF7E8FE20B9281EEE
:1031A000A5F101018DB2F2D101203A4908703A48E7
:1031B0000078A04206D0601E81B20B20FFF722FDEE
:1031C0003548047070BD70B506460D461420FFF7F3
:1031D0004CFF31480078A84206D0681E81B20B200F
:1031E000FFF710FD2C48057029463046FFF7F3FE27
:1031F0001A20FFF73AFFC82402E0012001F070FE18
:1032000001212E48FDF7B2FE20B9201EA4F10101D4
:103210008CB2F2D102201F4908704FF47A6401E0A9
:10322000601E84B201212548FDF7A0FE08B1002CE4
:10323000F6D100BF0CB9012070BD0020FCE72DE9DC
:10324000F04104460D4616464FF4FF771C480460D3
:10325000174805700520174908700220FDF7E5F8AA
:1032600001E0781E87B21348007808B1002FF8D12A
:103270003046FFF72DFF13480078BDE8F0810000CD
:10328000C45C0108045D010855AA55AA5400002039
:10329000000C01402B0000202A0000202600002006
:1032A00029000020385D0108845C01080C00002022
:1032B0005000002051000020EC00002000080140D8
:1032C0004C0000205200002030B585B004460D4669
:1032D0008B4884422AD1012144F20400FEF7C0FA4F
:1032E0006015ADF8100018208DF8130003208DF83C
:1032F000120004A98348FDF7A7FD2015ADF81000C2
:1033000004208DF8130004A97E48FDF79DFD0220DE
:10331000ADF8100010208DF8130004A97948FDF7CE
:1033200093FD02217748FDF73DFE44E07648844254
:103330001FD101214804FEF7A0FA01210420FEF765
:103340008FFA0420ADF8100018208DF81300032028
:103350008DF8120004A96B48FDF776FD0820ADF842
:10336000100048208DF8130004A96648FDF76CFD95
:1033700021E0664884421ED101218804FEF77DFACF
:1033800001210820FEF76CFA2015ADF81000182076
:103390008DF8130003208DF8120004A95C48FDF796
:1033A00053FDE014ADF8100048208DF8130004A977
:1033B0005748FDF749FD00950020ADF80400ADF831
:1033C0000600ADF80800ADF80C000C20ADF80A00BE
:1033D00069462046FFF7D1F94948844203D04A485C
:1033E000844200D000BF01212046FFF734FA05B027
:1033F00030BD70B504460D4629462046FFF793FAC6
:1034000000BF80212046FFF7E5FA0028F9D070BD03
:103410002DE9F04107460C461546002638488742FC
:103420001AD102213748FDF7BBFD41F6FF7001F0CC
:1034300068FD06E014F8011B3846FFF7DAFF761C3A
:103440006D1E002DF6D141F6FF7001F05AFD0221EC
:103450002C48FDF7A7FD09E006E014F8011B3846EB
:10346000FFF7C7FF761C6D1E002DF6D13046BDE874
:10347000F08110B5044640F227712046FFF7B6FAF6
:1034800060B11F48844203D01F48844200D000BF6F
:1034900040F227712046FFF7CFFA11E040F22551A4
:1034A0002046FFF7A3FA58B11548844203D01648C6
:1034B000844200D000BF40F225512046FFF7BCFAFD
:1034C00010BD00BF704770B504460D46E1B20E480E
:1034D000FFF729FA00BF80210B48FFF77BFA00288D
:1034E000F9D0204670BD10B5044600BF2021064823
:1034F000FFF770FA0028F9D00348FFF718FA10BD5B
:1035000000380140000801400044004000480040ED
:10351000000C014010B504460420FE490870FE4826
:10352000001BC00AFD4908603520FDF702FC0020A1
:10353000FB4908600EE0FA4909684FF4006202FB9B
:103540000140FDF74AF8F3490870F5480068401C4F
:10355000F3490860F2480068F0490968884203D2DC
:10356000EC4800780428E6D010BD10B5044635209C
:10357000FDF7DFFB206810BD2DE9F04105460E4642
:103580001746002409E056F8241005EB8400FDF7E7
:1035900052F9E0490870601C84B2DE4800780428C3
:1035A00001D1BC42EFDBDB480078BDE8F08110B50B
:1035B000FCF78DFFDB48FFF7ADFF0B22DA49D94856
:1035C000FFF7DAFF0422D949D948FFF7D5FF1022C7
:1035D000D849D948FFF7D0FF0622D849D848FFF785
:1035E000CBFFFCF78AFF10BD70B505460E462C21B7
:1035F000CD4811F0DFFC1021CC4811F0B9FC1821A6
:10360000CE4811F0B5FCC8480560280CC649888032
:10361000CD8042F21070B5FBF0F40A20B4FBF0F15B
:1036200000FB1140C04948820A20B4FBF0F4B4FB0F
:10363000F0F100FB1140BC49498A01EB0010BA4986
:1036400048820A20B4FBF0F4B4FBF0F100FB114017
:10365000B549498A01EB0020B34948820A20B4FBEE
:10366000F0F4B4FBF0F100FB1140AF49498A01EBE3
:103670000030AD4948820A20B4FBF0F4B4FBF0F00E
:103680004FF4005101EB00100A21B4FBF1F201FBF1
:1036900012410844A449088208468660300C88819B
:1036A000CE81012008750320487500208875C875F3
:1036B00008760A2048838883C883782008840120FC
:1036C00081F82200002081F82300012081F82400E5
:1036D0004FF48670C88440F2024008854FF6FF70B0
:1036E00092490880002048804FF49670C8800520D9
:1036F0004871CD200871502008720D2048721020AA
:1037000088720846C07A20F0F0001030C87208466F
:10371000C07A20F00F000A30C8724CF2A800874926
:1037200008804FF4997048804FF6FF7088804FF4FE
:103730007F40C8804CF2A800088140F20110488107
:103740000220087346F60E20C88148F6A960088258
:1037500040F6A1704882002008754021754811F09C
:1037600007FC7848416E734888477748D0F8D010F6
:10377000704888477548016E6E48884774480168EC
:103780006C4888477348016C6A48884770BD08B523
:1037900001F0C8FA01214FF0C050FEF76EF8012188
:1037A0000846FEF75DF801216B48FDF71DFC01F0AE
:1037B000C9FB01F0B2FB4FF416516848FFF784FDD6
:1037C0004FF416516648FFF77FFD4FF416516548D8
:1037D000FFF77AFD01F014FC01F0DAFB01F077FC51
:1037E00061480FF0D3FC01F0EFFA01F096FB7D2069
:1037F000FDF708FF08B1FEF771F845F25550FDF7E7
:1038000051FC0520FDF751FC40F6C410FDF750FCBB
:10381000002056490870FFF76CFBFDF751FC01F0E2
:103820007CFB4FF400515248FDF7BAFB4FF4967001
:1038300001F07AFB4FF400514D48FDF7B3FB01F066
:103840006CFB4C4800784C49087003204B490870C9
:10385000354EFCF73CFE4A48FFF787FE49490860B1
:103860004748001DFFF781FE4749086000240AE031
:10387000F02001F035FB2B4901EB8400FFF775FECA
:1038800046F82400641C0B2CF2DB284E00240AE0CE
:10389000F02001F025FB264901EB8400FFF765FECF
:1038A00046F82400641C042CF2DB224E00240AE0BB
:1038B000F02001F015FB204901EB8400FFF755FED5
:1038C00046F82400641C102CF2DB1C4E00240AE095
:1038D000F02001F005FB1A4901EB8400FFF745FEDB
:1038E00046F82400641C062CF2DBFCF706FE1548A3
:1038F000416E104888471448D0F8D0100D488847CA
:103900001248016E0B4888471148016809488847EA
:1039100010483BE0C400002000F80B08C000002065
:10392000BC00002000F00B08BC070020E8070020C6
:1039300000F10B083808002000F20B08F607002001
:1039400000F30B0894020020240300202804002028
:10395000B0060020C4010020000230000038014001
:103960000044004000480040E86700202600002096
:1039700000100140E4000020E20000202B000020A5
:1039800000E80B08D400002058000020016CFE481D
:103990008847FE4800684FF47A71B0FBF1F00A21C5
:1039A000B0FBF1F201FB12004000F9490870084633
:1039B0000078102801DD10200870002408E0F54A86
:1039C00032F81410F44A52F82400FDF7EBFA641CA4
:1039D000202CF4DB01F0A1FA002418E0ED4A32F8C3
:1039E0001410ED4A52F82400FDF7DAFA4FF4FA7099
:1039F00001F09AFAE74A32F81410E74A52F8240024
:103A0000FDF7D0FAFDF757FB01F087FA641CE04898
:103A100000788442E2DBDD480068401C50B9DF4892
:103A20000068401C30B9DE49DE48FFF7DDFDFFF7D6
:103A3000BEFD13E0DC480068D4490968884205D11E
:103A4000D9488068D5490968884207D0D3480168B9
:103A5000CE480068FFF7C8FDFFF7A9FDCB48006816
:103A600002F008F8C9480768380E07F47F0140EAF9
:103A7000112007F47F4140EA012040EA0760C34972
:103A80000860CA480078012802D1C949486E8047B9
:103A9000C8480078012802D1C749086B8047C3484D
:103AA0000078012816D1BB4A5188BB4A5068FDF7FF
:103AB00077FABF49C86D804730B1B64A5188B64AD7
:103AC0005068FDF76DFA05E0B24A5188B24A506875
:103AD000FDF768FAB7480078012816D1AD4A518839
:103AE000AD4A5068FDF75CFAB349886A804730B147
:103AF000A84A5188A84A5068FDF752FA05E0A54A3D
:103B00005188A54A5068FDF74DFAAC480078012865
:103B100002D1AB49486F8047AA480078012803D1F9
:103B2000A949D1F8E4008047A8480078012802D1CB
:103B3000A749086F8047A7480078012801D111F0F4
:103B40001FF8002000909848437D017D0022104618
:103B500002F014F902F0DAF902F0D2FD451C03205C
:103B600005F8010B042005F8010B8F48808800122E
:103B700005F8010B8C48007905F8010B8A48C088CC
:103B8000001205F8010B88488079287002F0B8FD12
:103B900000F101088449087D0622414602F01AFE20
:103BA0000720FFF795FA35E002F0D5F98A4800784A
:103BB000012802D18949086880477C48007801289B
:103BC00002D17B49886E80477A480078012802D16B
:103BD0007949486B804782480078012802D18049A2
:103BE000C86B80477B48007801280FD17D4800686A
:103BF0007D280BD300207B4908607B4810F0DCFF58
:103C0000794948730E227948FFF702FCFDF753FA11
:103C100001F083F9C8E70246002109E05A4830F86C
:103C20001100904202D1481C80B27047481C81B2FA
:103C30002029F3DB01D11046F7E71046F5E72DE91F
:103C4000F04702F05DFD441C02F05AFD861C4FF067
:103C50000608032004F8010B04203070641C4B4854
:103C600000682060241DE6E061480078C0EBC000D9
:103C7000604945185E480078C0EBC0004718A87836
:103C80000221B1EB501F0ED15B4829880180A97831
:103C900081705A4856490978405C5749C870D7F82E
:103CA00003004860B9E0A8780321B1EB501F38D178
:103CB0005148008829888842F4D14F490888FFF785
:103CC000AAFF4D49088008460088001204F8010B3D
:103CD0000846007804F8010BC978484A444B1B7821
:103CE000D25C881800EBD071C1F34701424AD17011
:103CF000D7F80300114688601022891C204611F075
:103D0000C0F80E342888001204F8010B287804F853
:103D1000010B30781230307008F112001FFA80F871
:103D20007BE02888FFF777FF81464FEA292004F8D7
:103D3000010B04F8019B2E480078C0EBC0002D4910
:103D40000844807804F8010B2C4829490978405C24
:103D500004F8010B0E21204611F00AF924480078DE
:103D6000C0EBC00023490844B0F8050020800834A7
:103D70001F480078C0EBC0000844B0F80300208062
:103D8000241D288800123BE038080020D4000020C1
:103D9000550000209C0000205C00002058000020FE
:103DA0004E61BC0078563412BC070020F70000209A
:103DB00010070020F80000207C070020F000002001
:103DC00094020020F200002024030020F3000020D1
:103DD00028040020F9000020F40000200C0200203C
:103DE000C4010020B80700203469002000380140D9
:103DF000E4000020780800200C08002020080020A3
:103E000004F8010B287804F8010B30781230307078
:103E100008F112001FFA80F800BFFE480078401C2D
:103E2000FC49087008460078182190FBF1F201FB6C
:103E30001200F8490870F7480078F7490978884275
:103E40007FF412AF4046BDE8F0872DE9F04102F063
:103E500057FC441C02F054FC861C0627032004F87F
:103E6000010B04203070641CEC4800682060241DA5
:103E700038E0E8480078C0EBC000E9494518A87868
:103E80000221B1EB501F1FD02888FFF7C4FE034664
:103E9000181204F8010B04F8013BDE480078C0EB6F
:103EA000C000DF490844807804F8010BD948007845
:103EB000C0EBC0000844007904F8010B3078001D05
:103EC0003070381D87B200BFD2480078401CD149FD
:103ED000087008460078182190FBF1F201FB1200EF
:103EE000CC490870CB480078CB4909788842C0D1CA
:103EF0003846BDE8F08170B5CA4890F8240018B182
:103F0000FFF7A3FF044602E0FFF799FE0446062CE4
:103F100008DD02F0F5FB451CC249087D2246294612
:103F200002F058FC70BD70B504462546A878032100
:103F3000B1EB501F12D1BC48408878B1BA48008814
:103F40002988884205D0B84800884FF6FF7188421A
:103F500004D107220E21B448FFF771F970BD2DE995
:103F6000F843054600260027B0462888ADF8000033
:103F7000A8788DF802002979E87841EA00201FFA34
:103F800080F89DF802000121B1EB501F04D09DF88C
:103F90000200400900286ED10024F0E0A34830F868
:103FA0001400BDF80010884206D0A04830F8140074
:103FB0004FF6FF71884274D19D48007801281CD1CA
:103FC0009C480078C8B92046E11704EB5171C1F351
:103FD000C706E11704EB5171C910A4EBC101CFB2C0
:103FE0009548805D0121B940084030B18F4931F8D2
:103FF00014009249CA6E0121904791480078002828
:1040000058D190480078844253DA8648007E0728C9
:1040100039D2DFE800F004192021282F310081482F
:1040200090F82200012808D0874A32F81410874AF5
:1040300052F82400FCF7B4FF05E0A0B28449012245
:104040004B684146984734E0A0B281490122CB68D1
:10405000414698472DE02CE0A0B27D490122CB6972
:104060004146984725E0A0B2794901224B6A414672
:1040700098471EE01DE086E0A0B2754901224B6B17
:104080004146984715E0674890F82200012809D07A
:104090006D4A32F814106D4A52F82400FCF780FF84
:1040A00006E06BE0A0B26A4901224B68414698479E
:1040B00000BF62E05B48007E072840D2DFE800F0E6
:1040C0000421282930373800564890F8220001286A
:1040D00010D05C480078844207DA5B4A32F814104A
:1040E0005A4A52F82400FCF75BFFE1B2594810F03D
:1040F00076FD05E0A0B2564901224B68414698473B
:104100003AE0A0B252490122CB684146984733E0D9
:1041100032E0A0B24E490122CB69414698472BE0DC
:10412000A0B24B4901224B6A4146984724E023E064
:10413000A0B2474901224B6B414698471CE03948E1
:1041400090F82200012810D03E480078844207DA17
:104150003D4A32F814103D4A52F82400FCF720FF83
:10416000E1B23C4810F03BFD05E0A0B23849012225
:104170004B684146984700BF00BF00BF641C202C1D
:10418000FFF60CAF25E19DF802000721B1EB501FAF
:1041900005D09DF802000621B1EB501FF2D100249A
:1041A00014E1224830F81400BDF80010884206D00F
:1041B0001E4830F814004FF6FF71884272D11C4837
:1041C000007801281CD11B480078C8B92046E117A7
:1041D00004EB5171C1F3C706E11704EB5171C9102B
:1041E000A4EBC101CFB21448805D0121B940084061
:1041F00030B10E4931F814001049CA6E00219047C1
:104200000F48007800287CD10E48007884426FDA8D
:10421000044821E0E4000020E2000020D400002057
:1042200078080020BC070020E8070020380800209C
:10423000F400002009020020331000200C020020AE
:10424000F9000020550000209C0000205C000020A8
:10425000C401002034690020007E072839D2DFE83D
:1042600000F004191A22292A3100EF4890F82200A0
:10427000012808D0ED4A32F81410ED4A52F8240013
:10428000FCF790FE05E0A0B2EA4900224B684146E7
:10429000984735E034E0A0B2E64900224B69414638
:1042A00098472DE091E0A0B2E2490022CB69414657
:1042B000984725E024E0A0B2DE490022CB6A4146BF
:1042C00098471DE0A0B2DB4900224B6B414698475E
:1042D00016E0D54890F8220001280AD0D34A32F8D7
:1042E0001410D34A52F82400FCF75CFE07E008E003
:1042F0006AE0A0B2CF4900224B684146984700BF10
:1043000062E0C948007E072840D2DFE800F00421BF
:10431000222930313800C44890F82200012810D0FA
:10432000C5480078844207DAC04A32F81410C04AFF
:1043300052F82400FCF736FEE1B2C04810F066FCEB
:1043400005E0A0B2BB4900224B68414698473AE0DD
:1043500039E0A0B2B74900224B694146984732E0A4
:10436000A0B2B4490022CB69414698472BE02AE02D
:10437000A0B2B0490022CB6A4146984723E0A0B2E0
:10438000AC4900224B6B414698471CE0A64890F888
:104390002200012810D0A8480078844207DAA34AF6
:1043A00032F81410A24A52F82400FCF7FBFDE1B2E7
:1043B000A24810F02BFC05E0A0B29E4900224B68F9
:1043C0004146984700BF00BF00BF641C202CFFF689
:1043D000E8AEBDE8F88310B50346002010BD2DE916
:1043E000F84304460D46164698464FF00009002D46
:1043F00002DBA81920280DDDFF2D03DDA819B0F57B
:10440000887F07DDB5F5805F78DBA81941F21001E0
:10441000884273DCB8F1000F03D0B8F1010F6ED100
:10442000FEE1F9E1152D6BD00EDC152D69D2DFE828
:1044300005F0252D353D47515B697179828C96A039
:10444000ABB4BDC8D3E2F100B5F5857F72D00ADC0C
:10445000A5F580700A28E9D2DFE800F0FBFAF9F848
:10446000F7F6F5F4F3F2A5F580500A28DED2DFE87E
:1044700000F0FAF9F8F7F6F5F4F3F2F1002004F899
:10448000010B6948007D04F8010BC0E1002004F82D
:10449000010B6548407D04F8010BB8E1002004F8E9
:1044A000010B6148807D04F8010BB0E15E48808813
:1044B000001204F8010B5C48007904F8010BA6E136
:1044C0005948C088001204F8010B5748807904F855
:1044D000010B9CE15448008A001204F8010B524879
:1044E000007C04F8010B92E14F48408A001204F866
:1044F000010B4D48807C04F8010B88E196E394E3BE
:10450000B2E07EE1002004F8010B4748C07D04F8CA
:10451000010B7CE1002004F8010B4748007804F807
:10452000010B74E1002004F8010B3F48007E04F801
:10453000010B6CE15DE13C48408B001204F8010B7B
:104540003948807E04F8010B61E13748808B001206
:1045500004F8010B3448007F04F8010B57E132489E
:10456000C08B001204F8010B2F48807F04F8010B68
:104570004DE12D48008C001204F8010B2A4890F8F8
:10458000200004F8010B42E1002004F8010B26484A
:1045900090F8220004F8010B39E1002004F8010B27
:1045A000214890F8230004F8010B30E11E48C08C2C
:1045B000001204F8010B1C4890F8260004F8010BC7
:1045C00025E11948008D001204F8010B164890F8F7
:1045D000280004F8010B1AE1FDF7CAF9A0F5E14043
:1045E000000E04F8010BFDF7C3F9A0F5E140000C43
:1045F00004F8010B0BE1FDF7BBF9A0F5E140000A5F
:1046000004F8010BFDF7B4F9A0F5E14004F8010B43
:10461000FDE0FFE704488089001204F8010B02481E
:10462000007B04F8010BF2E0BC0700209C00002096
:104630005C000020C40100205500002034690020E7
:10464000CDE0C2E0B7E0AEE0A3E098E08DE082E02C
:1046500077E06CE062E057E04EE045E03CE033E0BC
:1046600028E01FE014E009E0F948C089001204F8CE
:10467000010BF748807B04F8010BC8E0F54800887F
:10468000001204F8010BF348007804F8010BBEE0B7
:10469000F0484088001204F8010BEE48807804F8D6
:1046A000010BB4E0002004F8010BEA48007904F89B
:1046B000010BACE0E748C088001204F8010BE548A4
:1046C000807904F8010BA2E0002004F8010BE14816
:1046D000407904F8010B9AE0002004F8010BDD4852
:1046E000007A04F8010B92E0002004F8010BD9488D
:1046F000407A04F8010B8AE0002004F8010BD54849
:10470000807A04F8010B82E0002004F8010BD14804
:10471000C07A00F00F0004F8010B78E0002004F8E4
:10472000010BCC48C07A000904F8010B6FE0CA48BD
:104730000088001204F8010BC748007804F8010B48
:1047400065E0C5484088001204F8010BC248807833
:1047500004F8010B5BE0C0488088001204F8010BEC
:10476000BD48007904F8010B51E0BB48C088001235
:1047700004F8010BB848807904F8010B47E0B6480B
:104780000089001204F8010BB348007A04F8010B09
:104790003DE0B1484089001204F8010BAE48807A30
:1047A00004F8010B33E0002004F8010BAA48007B59
:1047B00004F8010B2BE0A848C089001204F8010B93
:1047C000A548807B04F8010B21E0A348008A001271
:1047D00004F8010BA048007C04F8010B17E09E4888
:1047E000408A001204F8010B9B48807C04F8010BFE
:1047F0000DE0002004F8010B9748007D04F8010B40
:1048000005E0002004F8010B04F8010B00BF00BF15
:10481000681C85B2701E86B2002E3FF703AE04E21C
:10482000E8E140F20311681A8D4271D021DC0D2DB0
:104830006FD00ADC0D2D6DD2DFE805F03E51646CBF
:104840006C6C6C6D6C737D8C9D00132D6FD006DCD1
:104850000E2D6DD00F2D6CD0122D5BD1B1E0B5F5C2
:10486000807F67D0A5F20110002870D00128F4D114
:104870003CE140F6FF62811A904269D014DC0528C1
:1048800067D008DC012871D0022870D003286FD0CF
:104890000428E2D160E106286BD0A0F6FD60002874
:1048A00068D00128D9D1B4E00829C4D2DFE801F0EA
:1048B00032C3D8DEE4EAF2FC641C14F8010B64494C
:1048C000087501F033FB002000906148437D017DB5
:1048D0000022104601F052FA01F018FB68E1641C56
:1048E00014F8010B5A49487501F020FB0020009094
:1048F0005748437D017D0022104601F03FFA01F048
:1049000005FB55E1641C14F8010B514988754FE112
:10491000F8E03CE044E1641C14F8010B4C49C87514
:1049200046E1641C14F8010B4949087640E155E062
:1049300039E03FE0C2E02078000245494883641C2A
:1049400014F8010B498B08434149488330E1C1E029
:104950006BE00DE1207800023D498883641C14F867
:10496000010B898B08433A49888321E1D6E0E1E0D5
:10497000ECE009E141E0207800023549C883641C7D
:1049800014F8010BC98B08433149C88310E1207822
:1049900000022F490884641C14F8010B098C084399
:1049A0002B49088404E1641C14F8010B284981F8A0
:1049B0002200FDE0641C14F8010B254981F8230056
:1049C000F6E02078000625490860641C2078096814
:1049D00041EA004021490860641CE9E020781F4951
:1049E000096841EA00201D490860641C14F8010BA5
:1049F0000968084319490860DAE02078000215497F
:104A00000880641C14F8010B0988084311490880C8
:104A1000CEE0207800020F494880641C14F8010B96
:104A2000498808430B494880C2E0641C14F8010B14
:104A300008490871BCE0207800020649C880641C5F
:104A400014F8010BC98808430249C880B0E000008F
:104A5000BC070020E8070020F6070020C80000205F
:104A6000641C14F8010BA3494871A1E0641C14F8FC
:104A7000010BA04908729BE0641C14F8010B9D49CE
:104A8000487295E0641C14F8010B9A4988728FE013
:104A90000AE0FFE7641C14F8011B9648C07A61F332
:104AA00003009449C87283E0641C14F8011B914808
:104AB000C07A61F307108F49C87279E0207800024C
:104AC0008D490880641C14F8010B098808438A4941
:104AD00008806DE02078000287494880641C14F843
:104AE000010B498808438449488061E0207800022E
:104AF00081498880641C14F8010B898808437E4929
:104B0000888055E0207800027B49C880641C14F836
:104B1000010BC98808437849C88049E02078000221
:104B200075490881641C14F8010B0989084372490E
:104B300008813DE0207800026F494881641C14F828
:104B4000010B498908436C49488131E0641C14F821
:104B5000010B694908732BE0207800026649C8817F
:104B6000641C14F8010BC98908436349C8811FE01C
:104B70002078000260490882641C14F8010B098A3D
:104B800008435D49088213E0207800025A494882B0
:104B9000641C14F8010B498A08435749488207E00E
:104BA000A41C5448408810B100205449088000BF1C
:104BB00000BF534800686FF30F00B8B15048008839
:104BC00080B298B101210807FCF757FE0120FCF7DD
:104BD00080FCFCF709FF4A48006800F5E140FCF75B
:104BE000D0FEFCF701FF002045490860681C85B233
:104BF000701E86B2002E3FF714AEFEF7D8FC414877
:104C0000416E414888474148D0F8D0103E48884717
:104C10003F48016E3C4888473E4801683A4888470B
:104C20003D48016C3848884700BF59E0B5F5005F42
:104C300054DBA81942F2200188424FDCA5F5005749
:104C4000B8F1000F03D0B8F1010F46D111E00DE02B
:104C50002D4830F81700001204F8010B2A4810F80C
:104C6000170004F8010B7F1C701E86B2002EEFDCCB
:104C700033E010E014F8011B0802234921F8170063
:104C800014F8010B31F8171008431F4921F81700D9
:104C90007F1C701E86B2002EECDCFEF788FC1948E3
:104CA000416E194888471948D0F8D01016488847EF
:104CB0001748016E1448884716480168124888470B
:104CC0001548016C1048884714480078012803D122
:104CD0001348816A0C48884700BF01E04FF0010982
:104CE0004846BDE8F88310B50446012010BD0346D0
:104CF00001207047E8070020F6070020CC000020C4
:104D0000C80000209402002038080020240300205E
:104D100028040020B0060020C4010020F400002078
:104D20000C02002010B5FCF72BFC4FF48030FCF790
:104D300046FCFCF783FC23490870084600780128EC
:104D400012D10020FCF7C3FC0020FCF7D2FC4FF48A
:104D50008060FCF7C5FC0220FBF79AFB1020FBF7F4
:104D6000ABFB0120FCF7A5FC01210420FCF778FD3A
:104D700001210820FCF774FD01211020FCF770FDD3
:104D80000121C802FCF76CFD01210846FCF775FD06
:104D900001210220FCF771FD01210420FCF76DFDCB
:104DA00010BD10B54FF48030FCF709FCFCF746FC51
:104DB0000449087008460078012801D1FCF779FC05
:104DC00010BD0000D800002010B500214FF0006099
:104DD000FCF780FA4FF4A060FCF7C5F91E203F49AC
:104DE00008700220487088700120C8700846FCF7DF
:104DF000C0F91D20394908700220487001208870D0
:104E0000C8700846FCF7B5F91C2034490870022028
:104E10004870002088700120C8700846FCF7A9F986
:104E200019202E4908700220487000208870012047
:104E3000C8700846FCF79DF9062028490870022032
:104E4000487001208870C8700846FCF792F9072066
:104E500022490870012048708870C8700846FCF725
:104E600088F90A201D4908700320487001208870C5
:104E7000C8700846FCF77DF9032018490870012026
:104E80004870002088700120C8700846FCF771F94E
:104E900025201249087001204870002088700120E8
:104EA000C8700846FCF765F926200C4908700120F7
:104EB0004870002088700120C8700846FCF759F936
:104EC00027200649087001204870002088700120C2
:104ED000C8700846FCF74DF910BD0000D90000204D
:104EE00010B5B84A118800BFB64A128844F620634C
:104EF0001A44521A92FBF3F403FB14228242F3DBAE
:104F000010BD01B50098C008009002E00098401E56
:104F1000009000980028F9D108BDAB48C06880F027
:104F20000400A949C860704710B5044607E0C820CE
:104F3000FFF7D6FF641EFFF7F0FFFCF7BCF8002C6C
:104F4000F5D110BD08B50420ADF8000010208DF893
:104F5000030003208DF8020069469B48FBF774FFAD
:104F600004219948FCF71CF808BD08B50420ADF8E9
:104F7000000014208DF8030003208DF8020069461C
:104F80009148FBF761FF04218F48FCF709F808BD41
:104F90001CB501210220FCF75CF8022000900020E3
:104FA0008DF804000C208DF8050001208DF8060016
:104FB0006846FBF7DBF900210846FCF74AF80120B8
:104FC000009000208DF804000C208DF805000120D1
:104FD0008DF806006846FBF7C9F904210220FCF7AA
:104FE00038F81020009000208DF804000C208DF877
:104FF000050001208DF806006846FBF7B7F91CBDD7
:1050000008B54FF41940ADF8000010208DF80300EA
:1050100003208DF8020069466C48FBF715FF40F24B
:10502000FD30ADF8000010208DF8030003208DF84E
:10503000020069466648FBF707FF4FF43870ADF889
:10504000000010208DF8030003208DF8020069464F
:105050005D48FBF7F9FE1220ADF8000048208DF8FE
:10506000030069465848FBF7EFFE4FF40050ADF8D7
:10507000000010208DF8030003208DF8020069461F
:105080005148FBF7E1FE0120ADF8000004208DF847
:10509000030069464D48FBF7D7FE4FF48040ADF85A
:1050A000000004208DF8030069464948FBF7CCFE58
:1050B0004BF20200ADF8000003208DF80200102032
:1050C0008DF8030069464248FBF7BEFE08BD0EB5E9
:1050D00044F62060ADF804002720ADF80000002061
:1050E000ADF80600ADF80200694636482438FCF7F2
:1050F00090FDC820ADF804002720ADF80000002086
:10510000ADF80600ADF8020069463248FCF781FDB3
:105110004FF4FA60ADF804002720ADF8000000203D
:10512000ADF80600ADF8020069464FF08040FCF78C
:1051300070FD4FF4FA60ADF804002720ADF80000D0
:105140000020ADF80600ADF8020069462248FCF7E1
:1051500060FD00212048FCF7E2FF00214FF0804075
:10516000FCF7DDFF01211B48FCF7D9FF01211548A1
:105170002438FCF7D4FF01211748FDF79EFA0121DE
:105180008807FDF79AFA01211248FDF796FA0121E6
:105190000C482438FDF791FA012211460E48FCF71D
:1051A000D9FF012211469007FCF7D4FF01221146D6
:1051B0000848FCF7CFFF0122114602482438FCF7CB
:1051C000C9FF0EBD24080040001001400008014046
:1051D000000C014000040040002C01407047704763
:1051E00070477047704770477047704710B501F0BF
:1051F000CFFDF6480068401CF449086010BD7047B8
:105200007047704710B500240120FCF71BFC0028F4
:105210007ED00120FCF726FCFCF7E6FBEC4800887A
:105220003B2808DBEB480088401CEA490880002046
:10523000E749088009E0E6480088401CE449088006
:10524000E5480088401CE4490880E2480088B0F541
:10525000B46F12D1DE48008878B9E048408860B168
:105260000020DE494880084640793D2803DA0420C2
:1052700048803D204871FEF79AF9D6480088B0F57D
:10528000EB6F0AD1D248008838B9D448408820B1A1
:105290000020D2494880FEF78AF9CF48008840F2C2
:1052A0008A21884203DBFBF7BEFFFCF71AF8CC48E3
:1052B000007838B10020CA4908702021C948FBF79E
:1052C00071FE06E00120C64908702021C548FBF7A1
:1052D00067FEC548007838B9C4480078012803D172
:1052E000C348816F3C208847BF48007840B9C14817
:1052F0000078012804D1C048D0F8E8103C20884745
:10530000B948007850B9BD480078012806D100E0BE
:1053100014E0BB48416F4FF496708847B948007855
:1053200001280BD1B849486F8047B848007828B9A0
:10533000B74AB2F81500B44A916F884710BD70475C
:10534000704710B50246B34890F8230000283DD0BE
:10535000002117E0B04810F821001478A0420FD1C6
:10536000AD4800EB810040785478A04208D1AA48AB
:1053700000EB810080789478A04201D1002010BD1C
:10538000481CC1B23229E5DB002108E0A24800EB4D
:105390008100407808B90B4603E0481CC1B23229AD
:1053A000F4DB00BF10789C4C04F82300507804EB29
:1053B000830460709078984C04EB8304A070954847
:1053C00090F82300944C04EB8304E0700120D6E7AE
:1053D00010B50120FBF740F800287DD001218F484F
:1053E000FBF7C4FD002878D120217E48FBF7D8FDCB
:1053F0008B480078002870D00A20FDF781FC89498D
:10540000894A1278885488490978C1EBC101874AD2
:10541000881887490978FDF702FE83480078C0EBB9
:10542000C00082490844407800285ED00F20FDF774
:1054300067FC00F40070002857D17B490978C1EB64
:10544000C1017A4A8818FFF77CFF00284DD0002060
:105450006149088074490978C1EBC101734A881811
:10546000FEF761FD704A1278C2EBC2026F4BD01892
:10547000704A516888476C4A1278C2EBC2026B4B83
:10548000D0186C4AD1688847674A1278C2EBC202CA
:10549000664BD018674A51698847634A1278C2EB55
:1054A000C202624BD018634A116A88475E49097884
:1054B000C1EBC1015D4A8818FEF751FD5A480078DA
:1054C000401C5949087008460078182190FBF1F2F9
:1054D00001FB1200544901E012E00EE008704D4853
:1054E000807D10B11020FAF7A0FF01214B48FBF797
:1054F0003DFD10B90720FDF7EBFD0120FAF7BDFFD8
:1055000010BD10B54C480078062805D1FDF716FEF1
:105510000120FAF7B2FF22E047480078072807D1B8
:1055200046480078FDF729FE0120FAF7A6FF16E0AD
:1055300041480078032812D03F48007804280ED054
:105540003D48007805280AD13C4801783C4800686D
:10555000FDF739FE3B4908700120FAF78EFF002065
:10556000354908700220FAF788FF10BD10B50420F5
:10557000FAF772FF10B10420FAF77FFF10BD10B5E3
:105580000820FAF769FF10B10820FAF776FF10BD7E
:1055900010B51020FAF760FF58B101E0FEF7ABFC40
:1055A00029480078204909788842F7D11020FAF775
:1055B00064FF10BD70477047704770477047704771
:1055C000704770477047704770477047E800002089
:1055D000CE000020CC000020D0000020E8070020F2
:1055E000ED000020000C01400C070020F00000201E
:1055F00094020020F200002024030020F300002089
:1056000028040020F40000200C02002009020020E1
:1056100014100020BC0700202009002000080140D1
:105620005400002020080020E2000020780800201C
:105630002A000020B0060020510000205000002069
:105640004C00002052000020E400002010B5402053
:10565000FAF702FF10B14020FAF70FFF8020FAF7A7
:10566000FBFE10B18020FAF708FF4FF48070FAF7C4
:10567000F3FE18B14FF48070FAF7FFFE4FF400709C
:10568000FAF7EAFE18B14FF40070FAF7F6FE10BD13
:10569000704710B50121D948FDF712F888B10121F2
:1056A000D648FDF71EF8D6480078012809D1D5481C
:1056B000008840F40040D34908800021CF48FCF71F
:1056C0002EFD10BD704710B50221CC48FDF709F83A
:1056D00010BD10B501218807FCF7F2FF002847D064
:1056E00001218807FCF7FDFFC748007868BBC74861
:1056F000007801280AD1C648008840F40040C44917
:10570000088000214FF08040FCF709FDC148007877
:1057100001280AD1C048008840F40040BE490880F2
:1057200000214FF08040FCF7FAFCBC4800780128CB
:105730001ED1BB48008840F40040B94908800021D0
:105740004FF08040FCF7EBFC12E0B64800780128EF
:1057500003D0B548007801280AD1B448008840F445
:105760000040B249088000214FF08040FCF7D7FC90
:1057700010BD10B500240121AD48FCF7A1FF0028A1
:105780007ED00121AA48FCF7ACFF00BF6AE004EB21
:10579000840000EBC400A74901EB80008079012858
:1057A0000FD104EB840000EBC40001EB8000008902
:1057B000401C04EB840101EBC4019E4A02EB810111
:1057C000088104EB840000EBC4009A4901EB8000DF
:1057D000C07901280FD104EB840000EBC40001EB79
:1057E00080004089401C04EB840101EBC401914A14
:1057F00002EB8101488104EB840000EBC4008D4979
:1058000001EB8000807C01280FD104EB840000EBC9
:10581000C40001EB80004069401C04EB840101EBF3
:10582000C401844A02EB8101486104EB840000EB6F
:10583000C400804901EB800090F8220001280FD1BC
:1058400004EB840000EBC40001EB8000406A401CC4
:1058500004EB840101EBC401764A02EB810148624A
:10586000601CC4B2202C92DB01207349087073487D
:105870000078012806D172480068401C704900E099
:1058800000E0086010BD10B501216E48FCF729FF4B
:105890006D4890F82300E8B1002419E06B4800EB54
:1058A0008400407890B1694800EB8400C078401EC5
:1058B000664901EB8401C870644800EB8400C0783D
:1058C00020B90020614901EB84014870601CC4B21A
:1058D000322CE3DB10BD704770477047704770474C
:1058E000704710B55A48007810B95A4801F005FAC7
:1058F00043480078012806D15748007818B957481E
:10590000C16D5448884710BD10B551480078012832
:1059100002D1534801F0F1F939480078012807D144
:105920004D480078012803D14C48C16D4C48884748
:1059300010BD10B534480078C8B934480078012843
:1059400003D14848016F4848884732480078012809
:1059500004D14648D0F8E010434888472F480078E3
:1059600001280FD14248C16E3F4888470AE02D48C0
:105970000078012803D02C480078012802D13A4849
:105980000DF0C4FE10BD10B54FF48060FAF764FD51
:1059900018B14FF48060FAF770FD4FF40060FAF729
:1059A0005BFD18B14FF40060FAF767FD4FF48050CB
:1059B000FAF752FD18B14FF48050FAF75EFD4FF43C
:1059C0000050FAF749FD18B14FF40050FAF755FDB1
:1059D0004FF48040FAF740FD18B14FF48040FAF7D9
:1059E0004CFD4FF40040FAF737FD18B14FF400407A
:1059F000FAF743FD10BD704770470000002C0140CE
:105A0000F40000208A0200200C070020F000002093
:105A100010030020F200002010040020F3000020FA
:105A2000A0040020F7000020F8000020B4070020A8
:105A30000004004068610020C4010020F90000203B
:105A4000B807002000080040BC0700202009002003
:105A5000F500002000380140F60000200C02002074
:105A6000004400409402002000480040240300202D
:105A7000280400200021421C12B1B44A904219D1DE
:105A80000022B34B1A70B34B1A70B34B1A70B34B5E
:105A90001A70B34B1A70B34B1A700122B24B1A70C2
:105AA0000022B24B1A70B24B1A70B24B1A70B24B42
:105AB0001A7070474FF47A72B0FBF2F302FB1302D4
:105AC0006423B2FBF3F2D1B20A2975D2DFE801F008
:105AD000051F3957758FABC9E6FE00229C4B1A7023
